{
  "contractName": "HelloWorld",
  "abi": [
    {
      "constant": true,
      "inputs": [],
      "name": "get",
      "outputs": [
        {
          "internalType": "string",
          "name": "",
          "type": "string"
        }
      ],
      "payable": false,
      "stateMutability": "pure",
      "type": "function"
    }
  ],
  "bytecode": "0x608060405234801561001057600080fd5b5061011d806100206000396000f3fe6080604052348015600f57600080fd5b506004361060285760003560e01c80636d4ce63c14602d575b600080fd5b603360ab565b6040518080602001828103825283818151815260200191508051906020019080838360005b8381101560715780820151818401526020810190506058565b50505050905090810190601f168015609d5780820380516001836020036101000a031916815260200191505b509250505060405180910390f35b60606040518060400160405280600b81526020017f48656c6c6f20576f726c6400000000000000000000000000000000000000000081525090509056fea265627a7a72315820a637102096b7efcf430eb573c1c617e755343fbcf8a46acf4de0a5cf953b5a0764736f6c63430005100032",
  "source": "pragma solidity >=0.5.0 <0.7.0;\n\ncontract HelloWorld {\n    function get() public pure returns(string memory) {\n        return \"Hello World\";\n    }\n}\n",
  "sourcePath": "/Users/shotaro.kawano/Workspace/truffle-samplse/contracts/HelloWorld.sol",
  "compiler": {
    "name": "solc",
    "version": "0.5.16+commit.9c3226ce.Emscripten.clang"
  },
  "schemaVersion": "3.2.3",
  "updatedAt": "2020-08-04T09:55:04.792Z",
  "networkType": "ethereum",
  "devdoc": {
    "methods": {}
  },
  "userdoc": {
    "methods": {}
  }
}